{
  "_format": "hh-sol-artifact-1",
  "contractName": "Token",
  "sourceName": "contracts/token.sol",
  "abi": [
    {
      "inputs": [],
      "stateMutability": "nonpayable",
      "type": "constructor"
    },
    {
      "inputs": [
        {
          "internalType": "address",
          "name": "account",
          "type": "address"
        }
      ],
      "name": "getBalance",
      "outputs": [
        {
          "internalType": "uint256",
          "name": "",
          "type": "uint256"
        }
      ],
      "stateMutability": "view",
      "type": "function"
    },
    {
      "inputs": [],
      "name": "name",
      "outputs": [
        {
          "internalType": "string",
          "name": "",
          "type": "string"
        }
      ],
      "stateMutability": "view",
      "type": "function"
    },
    {
      "inputs": [],
      "name": "owner",
      "outputs": [
        {
          "internalType": "address",
          "name": "",
          "type": "address"
        }
      ],
      "stateMutability": "view",
      "type": "function"
    },
    {
      "inputs": [],
      "name": "symbol",
      "outputs": [
        {
          "internalType": "string",
          "name": "",
          "type": "string"
        }
      ],
      "stateMutability": "view",
      "type": "function"
    },
    {
      "inputs": [],
      "name": "totalSupply",
      "outputs": [
        {
          "internalType": "uint256",
          "name": "",
          "type": "uint256"
        }
      ],
      "stateMutability": "view",
      "type": "function"
    },
    {
      "inputs": [
        {
          "internalType": "address",
          "name": "to",
          "type": "address"
        },
        {
          "internalType": "uint256",
          "name": "amount",
          "type": "uint256"
        }
      ],
      "name": "transfer",
      "outputs": [],
      "stateMutability": "nonpayable",
      "type": "function"
    },
    {
      "inputs": [
        {
          "internalType": "uint256",
          "name": "amount",
          "type": "uint256"
        },
        {
          "internalType": "address",
          "name": "to",
          "type": "address"
        }
      ],
      "name": "unlockTokens",
      "outputs": [],
      "stateMutability": "nonpayable",
      "type": "function"
    },
    {
      "inputs": [],
      "name": "valueLocked",
      "outputs": [
        {
          "internalType": "uint256",
          "name": "",
          "type": "uint256"
        }
      ],
      "stateMutability": "view",
      "type": "function"
    }
  ],
  "bytecode": "0x60806040526040518060400160405280601181526020017f53746172746572204b697420546f6b656e0000000000000000000000000000008152506000908051906020019062000051929190620001da565b506040518060400160405280600381526020017f534b540000000000000000000000000000000000000000000000000000000000815250600190805190602001906200009f929190620001da565b506305f5e100600255348015620000b557600080fd5b5033600460006101000a81548173ffffffffffffffffffffffffffffffffffffffff021916908373ffffffffffffffffffffffffffffffffffffffff16021790555060028054620001079190620002d1565b600560003373ffffffffffffffffffffffffffffffffffffffff1673ffffffffffffffffffffffffffffffffffffffff1681526020019081526020016000208190555033600280546200015b9190620002d1565b60405162000169906200026b565b620001769291906200035f565b604051809103906000f08015801562000193573d6000803e3d6000fd5b50600360006101000a81548173ffffffffffffffffffffffffffffffffffffffff021916908373ffffffffffffffffffffffffffffffffffffffff160217905550620003f1565b828054620001e890620003bb565b90600052602060002090601f0160209004810192826200020c576000855562000258565b82601f106200022757805160ff191683800117855562000258565b8280016001018555821562000258579182015b82811115620002575782518255916020019190600101906200023a565b5b50905062000267919062000279565b5090565b610490806200106783390190565b5b80821115620002945760008160009055506001016200027a565b5090565b6000819050919050565b7f4e487b7100000000000000000000000000000000000000000000000000000000600052601260045260246000fd5b6000620002de8262000298565b9150620002eb8362000298565b925082620002fe57620002fd620002a2565b5b828204905092915050565b600073ffffffffffffffffffffffffffffffffffffffff82169050919050565b6000620003368262000309565b9050919050565b620003488162000329565b82525050565b620003598162000298565b82525050565b60006040820190506200037660008301856200033d565b6200038560208301846200034e565b9392505050565b7f4e487b7100000000000000000000000000000000000000000000000000000000600052602260045260246000fd5b60006002820490506001821680620003d457607f821691505b60208210811415620003eb57620003ea6200038c565b5b50919050565b610c6680620004016000396000f3fe608060405234801561001057600080fd5b50600436106100885760003560e01c806395d89b411161005b57806395d89b4114610103578063a9059cbb14610121578063f8b2cb4f1461013d578063f9902be41461016d57610088565b806306fdde031461008d57806318160ddd146100ab5780637fde4424146100c95780638da5cb5b146100e5575b600080fd5b61009561018b565b6040516100a29190610791565b60405180910390f35b6100b3610219565b6040516100c091906107cc565b60405180910390f35b6100e360048036038101906100de9190610876565b61021f565b005b6100ed6103f2565b6040516100fa91906108c5565b60405180910390f35b61010b610418565b6040516101189190610791565b60405180910390f35b61013b600480360381019061013691906108e0565b6104a6565b005b61015760048036038101906101529190610920565b6105d8565b60405161016491906107cc565b60405180910390f35b610175610621565b60405161018291906107cc565b60405180910390f35b600080546101989061097c565b80601f01602080910402602001604051908101604052809291908181526020018280546101c49061097c565b80156102115780601f106101e657610100808354040283529160200191610211565b820191906000526020600020905b8154815290600101906020018083116101f457829003601f168201915b505050505081565b60025481565b600460009054906101000a900473ffffffffffffffffffffffffffffffffffffffff1673ffffffffffffffffffffffffffffffffffffffff163373ffffffffffffffffffffffffffffffffffffffff16146102af576040517f08c379a00000000000000000000000000000000000000000000000000000000081526004016102a690610a20565b60405180910390fd5b6000600360009054906101000a900473ffffffffffffffffffffffffffffffffffffffff1673ffffffffffffffffffffffffffffffffffffffff16637eee288d33856040518363ffffffff1660e01b815260040161030e929190610a40565b602060405180830381600087803b15801561032857600080fd5b505af115801561033c573d6000803e3d6000fd5b505050506040513d601f19601f820116820180604052508101906103609190610a7e565b905061036b33610636565b8060056000600460009054906101000a900473ffffffffffffffffffffffffffffffffffffffff1673ffffffffffffffffffffffffffffffffffffffff1673ffffffffffffffffffffffffffffffffffffffff16815260200190815260200160002060008282546103dc9190610ada565b925050819055506103ed82826104a6565b505050565b600460009054906101000a900473ffffffffffffffffffffffffffffffffffffffff1681565b600180546104259061097c565b80601f01602080910402602001604051908101604052809291908181526020018280546104519061097c565b801561049e5780601f106104735761010080835404028352916020019161049e565b820191906000526020600020905b81548152906001019060200180831161048157829003601f168201915b505050505081565b80600560003373ffffffffffffffffffffffffffffffffffffffff1673ffffffffffffffffffffffffffffffffffffffff168152602001908152602001600020541015610528576040517f08c379a000000000000000000000000000000000000000000000000000000000815260040161051f90610b7c565b60405180910390fd5b80600560003373ffffffffffffffffffffffffffffffffffffffff1673ffffffffffffffffffffffffffffffffffffffff16815260200190815260200160002060008282546105779190610b9c565b9250508190555080600560008473ffffffffffffffffffffffffffffffffffffffff1673ffffffffffffffffffffffffffffffffffffffff16815260200190815260200160002060008282546105cd9190610ada565b925050819055505050565b6000600560008373ffffffffffffffffffffffffffffffffffffffff1673ffffffffffffffffffffffffffffffffffffffff168152602001908152602001600020549050919050565b6000600280546106319190610bff565b905090565b6106cc8160405160240161064a91906108c5565b6040516020818303038152906040527f2c2ecbc2000000000000000000000000000000000000000000000000000000007bffffffffffffffffffffffffffffffffffffffffffffffffffffffff19166020820180517bffffffffffffffffffffffffffffffffffffffffffffffffffffffff83818316178352505050506106cf565b50565b60008151905060006a636f6e736f6c652e6c6f679050602083016000808483855afa5050505050565b600081519050919050565b600082825260208201905092915050565b60005b83811015610732578082015181840152602081019050610717565b83811115610741576000848401525b50505050565b6000601f19601f8301169050919050565b6000610763826106f8565b61076d8185610703565b935061077d818560208601610714565b61078681610747565b840191505092915050565b600060208201905081810360008301526107ab8184610758565b905092915050565b6000819050919050565b6107c6816107b3565b82525050565b60006020820190506107e160008301846107bd565b92915050565b600080fd5b6107f5816107b3565b811461080057600080fd5b50565b600081359050610812816107ec565b92915050565b600073ffffffffffffffffffffffffffffffffffffffff82169050919050565b600061084382610818565b9050919050565b61085381610838565b811461085e57600080fd5b50565b6000813590506108708161084a565b92915050565b6000806040838503121561088d5761088c6107e7565b5b600061089b85828601610803565b92505060206108ac85828601610861565b9150509250929050565b6108bf81610838565b82525050565b60006020820190506108da60008301846108b6565b92915050565b600080604083850312156108f7576108f66107e7565b5b600061090585828601610861565b925050602061091685828601610803565b9150509250929050565b600060208284031215610936576109356107e7565b5b600061094484828501610861565b91505092915050565b7f4e487b7100000000000000000000000000000000000000000000000000000000600052602260045260246000fd5b6000600282049050600182168061099457607f821691505b602082108114156109a8576109a761094d565b5b50919050565b7f4f6e6c79206f776e6572206973206c656769626c6520746f20756e6c6f636b2060008201527f746f6b656e730000000000000000000000000000000000000000000000000000602082015250565b6000610a0a602683610703565b9150610a15826109ae565b604082019050919050565b60006020820190508181036000830152610a39816109fd565b9050919050565b6000604082019050610a5560008301856108b6565b610a6260208301846107bd565b9392505050565b600081519050610a78816107ec565b92915050565b600060208284031215610a9457610a936107e7565b5b6000610aa284828501610a69565b91505092915050565b7f4e487b7100000000000000000000000000000000000000000000000000000000600052601160045260246000fd5b6000610ae5826107b3565b9150610af0836107b3565b9250827fffffffffffffffffffffffffffffffffffffffffffffffffffffffffffffffff03821115610b2557610b24610aab565b5b828201905092915050565b7f4e6f7420656e6f75676820746f6b656e73000000000000000000000000000000600082015250565b6000610b66601183610703565b9150610b7182610b30565b602082019050919050565b60006020820190508181036000830152610b9581610b59565b9050919050565b6000610ba7826107b3565b9150610bb2836107b3565b925082821015610bc557610bc4610aab565b5b828203905092915050565b7f4e487b7100000000000000000000000000000000000000000000000000000000600052601260045260246000fd5b6000610c0a826107b3565b9150610c15836107b3565b925082610c2557610c24610bd0565b5b82820490509291505056fea2646970667358221220763571db6a339edadeaf63fccc5324be000f5bd059a36af9e47042257acee67a64736f6c63430008090033608060405234801561001057600080fd5b506040516104903803806104908339818101604052810190610032919061011a565b8060008190555081600160006101000a81548173ffffffffffffffffffffffffffffffffffffffff021916908373ffffffffffffffffffffffffffffffffffffffff160217905550505061015a565b600080fd5b600073ffffffffffffffffffffffffffffffffffffffff82169050919050565b60006100b182610086565b9050919050565b6100c1816100a6565b81146100cc57600080fd5b50565b6000815190506100de816100b8565b92915050565b6000819050919050565b6100f7816100e4565b811461010257600080fd5b50565b600081519050610114816100ee565b92915050565b6000806040838503121561013157610130610081565b5b600061013f858286016100cf565b925050602061015085828601610105565b9150509250929050565b610327806101696000396000f3fe608060405234801561001057600080fd5b50600436106100415760003560e01c80637eee288d146100465780638da5cb5b14610076578063f9902be414610094575b600080fd5b610060600480360381019061005b91906101fa565b6100b2565b60405161006d9190610249565b60405180910390f35b61007e610135565b60405161008b9190610273565b60405180910390f35b61009c61015b565b6040516100a99190610249565b60405180910390f35b60008273ffffffffffffffffffffffffffffffffffffffff16600160009054906101000a900473ffffffffffffffffffffffffffffffffffffffff1673ffffffffffffffffffffffffffffffffffffffff161461010e57600080fd5b8160008082825461011f91906102bd565b9250508190555060008290508091505092915050565b600160009054906101000a900473ffffffffffffffffffffffffffffffffffffffff1681565b60005481565b600080fd5b600073ffffffffffffffffffffffffffffffffffffffff82169050919050565b600061019182610166565b9050919050565b6101a181610186565b81146101ac57600080fd5b50565b6000813590506101be81610198565b92915050565b6000819050919050565b6101d7816101c4565b81146101e257600080fd5b50565b6000813590506101f4816101ce565b92915050565b6000806040838503121561021157610210610161565b5b600061021f858286016101af565b9250506020610230858286016101e5565b9150509250929050565b610243816101c4565b82525050565b600060208201905061025e600083018461023a565b92915050565b61026d81610186565b82525050565b60006020820190506102886000830184610264565b92915050565b7f4e487b7100000000000000000000000000000000000000000000000000000000600052601160045260246000fd5b60006102c8826101c4565b91506102d3836101c4565b9250828210156102e6576102e561028e565b5b82820390509291505056fea264697066735822122042d8c768c2c64fda3dbe0a1ce7b52b7e5df96bf0bc7eac17dc3007f08bb16a0264736f6c63430008090033",
  "linkReferences": {},
  "deployedLinkReferences": {}
}