{
  "_format": "hh-sol-artifact-1",
  "contractName": "Token",
  "sourceName": "contracts/token.sol",
  "abi": [
    {
      "inputs": [],
      "stateMutability": "nonpayable",
      "type": "constructor"
    },
    {
      "inputs": [
        {
          "internalType": "address",
          "name": "account",
          "type": "address"
        }
      ],
      "name": "getBalance",
      "outputs": [
        {
          "internalType": "uint256",
          "name": "",
          "type": "uint256"
        }
      ],
      "stateMutability": "view",
      "type": "function"
    },
    {
      "inputs": [],
      "name": "name",
      "outputs": [
        {
          "internalType": "string",
          "name": "",
          "type": "string"
        }
      ],
      "stateMutability": "view",
      "type": "function"
    },
    {
      "inputs": [],
      "name": "owner",
      "outputs": [
        {
          "internalType": "address",
          "name": "",
          "type": "address"
        }
      ],
      "stateMutability": "view",
      "type": "function"
    },
    {
      "inputs": [],
      "name": "symbol",
      "outputs": [
        {
          "internalType": "string",
          "name": "",
          "type": "string"
        }
      ],
      "stateMutability": "view",
      "type": "function"
    },
    {
      "inputs": [],
      "name": "totalSupply",
      "outputs": [
        {
          "internalType": "uint256",
          "name": "",
          "type": "uint256"
        }
      ],
      "stateMutability": "view",
      "type": "function"
    },
    {
      "inputs": [
        {
          "internalType": "address",
          "name": "to",
          "type": "address"
        },
        {
          "internalType": "uint256",
          "name": "amount",
          "type": "uint256"
        }
      ],
      "name": "transfer",
      "outputs": [],
      "stateMutability": "nonpayable",
      "type": "function"
    },
    {
      "inputs": [
        {
          "internalType": "uint256",
          "name": "amount",
          "type": "uint256"
        }
      ],
      "name": "unlockTokens",
      "outputs": [
        {
          "internalType": "uint256",
          "name": "",
          "type": "uint256"
        }
      ],
      "stateMutability": "nonpayable",
      "type": "function"
    },
    {
      "inputs": [],
      "name": "valueLocked",
      "outputs": [
        {
          "internalType": "uint256",
          "name": "",
          "type": "uint256"
        }
      ],
      "stateMutability": "view",
      "type": "function"
    }
  ],
  "bytecode": "0x60806040526040518060400160405280601181526020017f53746172746572204b697420546f6b656e0000000000000000000000000000008152506000908051906020019062000051929190620001da565b506040518060400160405280600381526020017f534b540000000000000000000000000000000000000000000000000000000000815250600190805190602001906200009f929190620001da565b506305f5e100600255348015620000b557600080fd5b5033600460006101000a81548173ffffffffffffffffffffffffffffffffffffffff021916908373ffffffffffffffffffffffffffffffffffffffff16021790555060028054620001079190620002d1565b600560003373ffffffffffffffffffffffffffffffffffffffff1673ffffffffffffffffffffffffffffffffffffffff1681526020019081526020016000208190555033600280546200015b9190620002d1565b60405162000169906200026b565b620001769291906200035f565b604051809103906000f08015801562000193573d6000803e3d6000fd5b50600360006101000a81548173ffffffffffffffffffffffffffffffffffffffff021916908373ffffffffffffffffffffffffffffffffffffffff160217905550620003f1565b828054620001e890620003bb565b90600052602060002090601f0160209004810192826200020c576000855562000258565b82601f106200022757805160ff191683800117855562000258565b8280016001018555821562000258579182015b82811115620002575782518255916020019190600101906200023a565b5b50905062000267919062000279565b5090565b6104508062000dce83390190565b5b80821115620002945760008160009055506001016200027a565b5090565b6000819050919050565b7f4e487b7100000000000000000000000000000000000000000000000000000000600052601260045260246000fd5b6000620002de8262000298565b9150620002eb8362000298565b925082620002fe57620002fd620002a2565b5b828204905092915050565b600073ffffffffffffffffffffffffffffffffffffffff82169050919050565b6000620003368262000309565b9050919050565b620003488162000329565b82525050565b620003598162000298565b82525050565b60006040820190506200037660008301856200033d565b6200038560208301846200034e565b9392505050565b7f4e487b7100000000000000000000000000000000000000000000000000000000600052602260045260246000fd5b60006002820490506001821680620003d457607f821691505b60208210811415620003eb57620003ea6200038c565b5b50919050565b6109cd80620004016000396000f3fe608060405234801561001057600080fd5b50600436106100885760003560e01c806395d89b411161005b57806395d89b4114610117578063a9059cbb14610135578063f8b2cb4f14610151578063f9902be41461018157610088565b806306fdde031461008d57806318160ddd146100ab5780637c405325146100c95780638da5cb5b146100f9575b600080fd5b61009561019f565b6040516100a291906105c6565b60405180910390f35b6100b361022d565b6040516100c09190610601565b60405180910390f35b6100e360048036038101906100de919061064d565b610233565b6040516100f09190610601565b60405180910390f35b6101016102e9565b60405161010e91906106bb565b60405180910390f35b61011f61030f565b60405161012c91906105c6565b60405180910390f35b61014f600480360381019061014a9190610702565b61039d565b005b61016b60048036038101906101669190610742565b6104cf565b6040516101789190610601565b60405180910390f35b610189610518565b6040516101969190610601565b60405180910390f35b600080546101ac9061079e565b80601f01602080910402602001604051908101604052809291908181526020018280546101d89061079e565b80156102255780601f106101fa57610100808354040283529160200191610225565b820191906000526020600020905b81548152906001019060200180831161020857829003601f168201915b505050505081565b60025481565b6000600360009054906101000a900473ffffffffffffffffffffffffffffffffffffffff1673ffffffffffffffffffffffffffffffffffffffff16636198e339836040518263ffffffff1660e01b81526004016102909190610601565b602060405180830381600087803b1580156102aa57600080fd5b505af11580156102be573d6000803e3d6000fd5b505050506040513d601f19601f820116820180604052508101906102e291906107e5565b9050919050565b600460009054906101000a900473ffffffffffffffffffffffffffffffffffffffff1681565b6001805461031c9061079e565b80601f01602080910402602001604051908101604052809291908181526020018280546103489061079e565b80156103955780601f1061036a57610100808354040283529160200191610395565b820191906000526020600020905b81548152906001019060200180831161037857829003601f168201915b505050505081565b80600560003373ffffffffffffffffffffffffffffffffffffffff1673ffffffffffffffffffffffffffffffffffffffff16815260200190815260200160002054101561041f576040517f08c379a00000000000000000000000000000000000000000000000000000000081526004016104169061085e565b60405180910390fd5b80600560003373ffffffffffffffffffffffffffffffffffffffff1673ffffffffffffffffffffffffffffffffffffffff168152602001908152602001600020600082825461046e91906108ad565b9250508190555080600560008473ffffffffffffffffffffffffffffffffffffffff1673ffffffffffffffffffffffffffffffffffffffff16815260200190815260200160002060008282546104c491906108e1565b925050819055505050565b6000600560008373ffffffffffffffffffffffffffffffffffffffff1673ffffffffffffffffffffffffffffffffffffffff168152602001908152602001600020549050919050565b6000600280546105289190610966565b905090565b600081519050919050565b600082825260208201905092915050565b60005b8381101561056757808201518184015260208101905061054c565b83811115610576576000848401525b50505050565b6000601f19601f8301169050919050565b60006105988261052d565b6105a28185610538565b93506105b2818560208601610549565b6105bb8161057c565b840191505092915050565b600060208201905081810360008301526105e0818461058d565b905092915050565b6000819050919050565b6105fb816105e8565b82525050565b600060208201905061061660008301846105f2565b92915050565b600080fd5b61062a816105e8565b811461063557600080fd5b50565b60008135905061064781610621565b92915050565b6000602082840312156106635761066261061c565b5b600061067184828501610638565b91505092915050565b600073ffffffffffffffffffffffffffffffffffffffff82169050919050565b60006106a58261067a565b9050919050565b6106b58161069a565b82525050565b60006020820190506106d060008301846106ac565b92915050565b6106df8161069a565b81146106ea57600080fd5b50565b6000813590506106fc816106d6565b92915050565b600080604083850312156107195761071861061c565b5b6000610727858286016106ed565b925050602061073885828601610638565b9150509250929050565b6000602082840312156107585761075761061c565b5b6000610766848285016106ed565b91505092915050565b7f4e487b7100000000000000000000000000000000000000000000000000000000600052602260045260246000fd5b600060028204905060018216806107b657607f821691505b602082108114156107ca576107c961076f565b5b50919050565b6000815190506107df81610621565b92915050565b6000602082840312156107fb576107fa61061c565b5b6000610809848285016107d0565b91505092915050565b7f4e6f7420656e6f75676820746f6b656e73000000000000000000000000000000600082015250565b6000610848601183610538565b915061085382610812565b602082019050919050565b600060208201905081810360008301526108778161083b565b9050919050565b7f4e487b7100000000000000000000000000000000000000000000000000000000600052601160045260246000fd5b60006108b8826105e8565b91506108c3836105e8565b9250828210156108d6576108d561087e565b5b828203905092915050565b60006108ec826105e8565b91506108f7836105e8565b9250827fffffffffffffffffffffffffffffffffffffffffffffffffffffffffffffffff0382111561092c5761092b61087e565b5b828201905092915050565b7f4e487b7100000000000000000000000000000000000000000000000000000000600052601260045260246000fd5b6000610971826105e8565b915061097c836105e8565b92508261098c5761098b610937565b5b82820490509291505056fea2646970667358221220276240a07d68cb9c2d276de0b918cef374acb34662bcffd7e58fdc4de3c9b87a64736f6c63430008090033608060405234801561001057600080fd5b506040516104503803806104508339818101604052810190610032919061011a565b8060008190555081600160006101000a81548173ffffffffffffffffffffffffffffffffffffffff021916908373ffffffffffffffffffffffffffffffffffffffff160217905550505061015a565b600080fd5b600073ffffffffffffffffffffffffffffffffffffffff82169050919050565b60006100b182610086565b9050919050565b6100c1816100a6565b81146100cc57600080fd5b50565b6000815190506100de816100b8565b92915050565b6000819050919050565b6100f7816100e4565b811461010257600080fd5b50565b600081519050610114816100ee565b92915050565b6000806040838503121561013157610130610081565b5b600061013f858286016100cf565b925050602061015085828601610105565b9150509250929050565b6102e7806101696000396000f3fe608060405234801561001057600080fd5b50600436106100415760003560e01c80636198e339146100465780638da5cb5b14610076578063f9902be414610094575b600080fd5b610060600480360381019061005b919061019b565b6100b2565b60405161006d91906101d7565b60405180910390f35b61007e610134565b60405161008b9190610233565b60405180910390f35b61009c61015a565b6040516100a991906101d7565b60405180910390f35b60003373ffffffffffffffffffffffffffffffffffffffff16600160009054906101000a900473ffffffffffffffffffffffffffffffffffffffff1673ffffffffffffffffffffffffffffffffffffffff161461010e57600080fd5b8160008082825461011f919061027d565b92505081905550600082905080915050919050565b600160009054906101000a900473ffffffffffffffffffffffffffffffffffffffff1681565b60005481565b600080fd5b6000819050919050565b61017881610165565b811461018357600080fd5b50565b6000813590506101958161016f565b92915050565b6000602082840312156101b1576101b0610160565b5b60006101bf84828501610186565b91505092915050565b6101d181610165565b82525050565b60006020820190506101ec60008301846101c8565b92915050565b600073ffffffffffffffffffffffffffffffffffffffff82169050919050565b600061021d826101f2565b9050919050565b61022d81610212565b82525050565b60006020820190506102486000830184610224565b92915050565b7f4e487b7100000000000000000000000000000000000000000000000000000000600052601160045260246000fd5b600061028882610165565b915061029383610165565b9250828210156102a6576102a561024e565b5b82820390509291505056fea264697066735822122024f75b9b0e86b999818bb2f62b2d6e3cc09b549f755cdcb4f7ae89239cb1940c64736f6c63430008090033",
  "linkReferences": {},
  "deployedLinkReferences": {}
}