{
  "_format": "hh-sol-artifact-1",
  "contractName": "Token",
  "sourceName": "contracts/token.sol",
  "abi": [
    {
      "inputs": [],
      "stateMutability": "nonpayable",
      "type": "constructor"
    },
    {
      "inputs": [
        {
          "internalType": "address",
          "name": "account",
          "type": "address"
        }
      ],
      "name": "getBalance",
      "outputs": [
        {
          "internalType": "uint256",
          "name": "",
          "type": "uint256"
        }
      ],
      "stateMutability": "view",
      "type": "function"
    },
    {
      "inputs": [],
      "name": "name",
      "outputs": [
        {
          "internalType": "string",
          "name": "",
          "type": "string"
        }
      ],
      "stateMutability": "view",
      "type": "function"
    },
    {
      "inputs": [],
      "name": "owner",
      "outputs": [
        {
          "internalType": "address",
          "name": "",
          "type": "address"
        }
      ],
      "stateMutability": "view",
      "type": "function"
    },
    {
      "inputs": [],
      "name": "symbol",
      "outputs": [
        {
          "internalType": "string",
          "name": "",
          "type": "string"
        }
      ],
      "stateMutability": "view",
      "type": "function"
    },
    {
      "inputs": [],
      "name": "totalSupply",
      "outputs": [
        {
          "internalType": "uint256",
          "name": "",
          "type": "uint256"
        }
      ],
      "stateMutability": "view",
      "type": "function"
    },
    {
      "inputs": [
        {
          "internalType": "address",
          "name": "to",
          "type": "address"
        },
        {
          "internalType": "uint256",
          "name": "amount",
          "type": "uint256"
        }
      ],
      "name": "transfer",
      "outputs": [],
      "stateMutability": "nonpayable",
      "type": "function"
    },
    {
      "inputs": [],
      "name": "valueLocked",
      "outputs": [
        {
          "internalType": "uint256",
          "name": "",
          "type": "uint256"
        }
      ],
      "stateMutability": "view",
      "type": "function"
    }
  ],
  "bytecode": "0x60806040526040518060400160405280601181526020017f53746172746572204b697420546f6b656e0000000000000000000000000000008152506000908051906020019062000051929190620001da565b506040518060400160405280600381526020017f534b540000000000000000000000000000000000000000000000000000000000815250600190805190602001906200009f929190620001da565b506305f5e100600255348015620000b557600080fd5b5033600460006101000a81548173ffffffffffffffffffffffffffffffffffffffff021916908373ffffffffffffffffffffffffffffffffffffffff16021790555060028054620001079190620002d1565b600560003373ffffffffffffffffffffffffffffffffffffffff1673ffffffffffffffffffffffffffffffffffffffff1681526020019081526020016000208190555033600280546200015b9190620002d1565b60405162000169906200026b565b620001769291906200035f565b604051809103906000f08015801562000193573d6000803e3d6000fd5b50600360006101000a81548173ffffffffffffffffffffffffffffffffffffffff021916908373ffffffffffffffffffffffffffffffffffffffff160217905550620003f1565b828054620001e890620003bb565b90600052602060002090601f0160209004810192826200020c576000855562000258565b82601f106200022757805160ff191683800117855562000258565b8280016001018555821562000258579182015b82811115620002575782518255916020019190600101906200023a565b5b50905062000267919062000279565b5090565b61035f8062000c6e83390190565b5b80821115620002945760008160009055506001016200027a565b5090565b6000819050919050565b7f4e487b7100000000000000000000000000000000000000000000000000000000600052601260045260246000fd5b6000620002de8262000298565b9150620002eb8362000298565b925082620002fe57620002fd620002a2565b5b828204905092915050565b600073ffffffffffffffffffffffffffffffffffffffff82169050919050565b6000620003368262000309565b9050919050565b620003488162000329565b82525050565b620003598162000298565b82525050565b60006040820190506200037660008301856200033d565b6200038560208301846200034e565b9392505050565b7f4e487b7100000000000000000000000000000000000000000000000000000000600052602260045260246000fd5b60006002820490506001821680620003d457607f821691505b60208210811415620003eb57620003ea6200038c565b5b50919050565b61086d80620004016000396000f3fe608060405234801561001057600080fd5b506004361061007d5760003560e01c806395d89b411161005b57806395d89b41146100dc578063a9059cbb146100fa578063f8b2cb4f14610116578063f9902be4146101465761007d565b806306fdde031461008257806318160ddd146100a05780638da5cb5b146100be575b600080fd5b61008a610164565b60405161009791906104d5565b60405180910390f35b6100a86101f2565b6040516100b59190610510565b60405180910390f35b6100c66101f8565b6040516100d3919061056c565b60405180910390f35b6100e461021e565b6040516100f191906104d5565b60405180910390f35b610114600480360381019061010f91906105e4565b6102ac565b005b610130600480360381019061012b9190610624565b6103de565b60405161013d9190610510565b60405180910390f35b61014e610427565b60405161015b9190610510565b60405180910390f35b6000805461017190610680565b80601f016020809104026020016040519081016040528092919081815260200182805461019d90610680565b80156101ea5780601f106101bf576101008083540402835291602001916101ea565b820191906000526020600020905b8154815290600101906020018083116101cd57829003601f168201915b505050505081565b60025481565b600460009054906101000a900473ffffffffffffffffffffffffffffffffffffffff1681565b6001805461022b90610680565b80601f016020809104026020016040519081016040528092919081815260200182805461025790610680565b80156102a45780601f10610279576101008083540402835291602001916102a4565b820191906000526020600020905b81548152906001019060200180831161028757829003601f168201915b505050505081565b80600560003373ffffffffffffffffffffffffffffffffffffffff1673ffffffffffffffffffffffffffffffffffffffff16815260200190815260200160002054101561032e576040517f08c379a0000000000000000000000000000000000000000000000000000000008152600401610325906106fe565b60405180910390fd5b80600560003373ffffffffffffffffffffffffffffffffffffffff1673ffffffffffffffffffffffffffffffffffffffff168152602001908152602001600020600082825461037d919061074d565b9250508190555080600560008473ffffffffffffffffffffffffffffffffffffffff1673ffffffffffffffffffffffffffffffffffffffff16815260200190815260200160002060008282546103d39190610781565b925050819055505050565b6000600560008373ffffffffffffffffffffffffffffffffffffffff1673ffffffffffffffffffffffffffffffffffffffff168152602001908152602001600020549050919050565b6000600280546104379190610806565b905090565b600081519050919050565b600082825260208201905092915050565b60005b8381101561047657808201518184015260208101905061045b565b83811115610485576000848401525b50505050565b6000601f19601f8301169050919050565b60006104a78261043c565b6104b18185610447565b93506104c1818560208601610458565b6104ca8161048b565b840191505092915050565b600060208201905081810360008301526104ef818461049c565b905092915050565b6000819050919050565b61050a816104f7565b82525050565b60006020820190506105256000830184610501565b92915050565b600073ffffffffffffffffffffffffffffffffffffffff82169050919050565b60006105568261052b565b9050919050565b6105668161054b565b82525050565b6000602082019050610581600083018461055d565b92915050565b600080fd5b6105958161054b565b81146105a057600080fd5b50565b6000813590506105b28161058c565b92915050565b6105c1816104f7565b81146105cc57600080fd5b50565b6000813590506105de816105b8565b92915050565b600080604083850312156105fb576105fa610587565b5b6000610609858286016105a3565b925050602061061a858286016105cf565b9150509250929050565b60006020828403121561063a57610639610587565b5b6000610648848285016105a3565b91505092915050565b7f4e487b7100000000000000000000000000000000000000000000000000000000600052602260045260246000fd5b6000600282049050600182168061069857607f821691505b602082108114156106ac576106ab610651565b5b50919050565b7f4e6f7420656e6f75676820746f6b656e73000000000000000000000000000000600082015250565b60006106e8601183610447565b91506106f3826106b2565b602082019050919050565b60006020820190508181036000830152610717816106db565b9050919050565b7f4e487b7100000000000000000000000000000000000000000000000000000000600052601160045260246000fd5b6000610758826104f7565b9150610763836104f7565b9250828210156107765761077561071e565b5b828203905092915050565b600061078c826104f7565b9150610797836104f7565b9250827fffffffffffffffffffffffffffffffffffffffffffffffffffffffffffffffff038211156107cc576107cb61071e565b5b828201905092915050565b7f4e487b7100000000000000000000000000000000000000000000000000000000600052601260045260246000fd5b6000610811826104f7565b915061081c836104f7565b92508261082c5761082b6107d7565b5b82820490509291505056fea26469706673582212202649ea1c586d4993eef1d4aa3d0bf85cb554381e4a3148a4018e222cf68e121864736f6c63430008090033608060405234801561001057600080fd5b5060405161035f38038061035f8339818101604052810190610032919061011a565b8060008190555081600160006101000a81548173ffffffffffffffffffffffffffffffffffffffff021916908373ffffffffffffffffffffffffffffffffffffffff160217905550505061015a565b600080fd5b600073ffffffffffffffffffffffffffffffffffffffff82169050919050565b60006100b182610086565b9050919050565b6100c1816100a6565b81146100cc57600080fd5b50565b6000815190506100de816100b8565b92915050565b6000819050919050565b6100f7816100e4565b811461010257600080fd5b50565b600081519050610114816100ee565b92915050565b6000806040838503121561013157610130610081565b5b600061013f858286016100cf565b925050602061015085828601610105565b9150509250929050565b6101f6806101696000396000f3fe608060405234801561001057600080fd5b50600436106100415760003560e01c80638da5cb5b14610046578063a69df4b514610064578063f9902be414610082575b600080fd5b61004e6100a0565b60405161005b9190610171565b60405180910390f35b61006c6100c6565b60405161007991906101a5565b60405180910390f35b61008a61012a565b60405161009791906101a5565b60405180910390f35b600160009054906101000a900473ffffffffffffffffffffffffffffffffffffffff1681565b60003373ffffffffffffffffffffffffffffffffffffffff16600160009054906101000a900473ffffffffffffffffffffffffffffffffffffffff1673ffffffffffffffffffffffffffffffffffffffff161461012257600080fd5b600054905090565b60005481565b600073ffffffffffffffffffffffffffffffffffffffff82169050919050565b600061015b82610130565b9050919050565b61016b81610150565b82525050565b60006020820190506101866000830184610162565b92915050565b6000819050919050565b61019f8161018c565b82525050565b60006020820190506101ba6000830184610196565b9291505056fea26469706673582212209aa0f531157e01965ff0656bbb215f99360be445f4444046b906dcd0c45f084464736f6c63430008090033",
  "linkReferences": {},
  "deployedLinkReferences": {}
}